{
  "_format": "hh-sol-artifact-1",
  "contractName": "FTSOReader",
  "sourceName": "contracts/FTSOReader.sol",
  "abi": [
    {
      "inputs": [
        {
          "internalType": "address",
          "name": "_registry",
          "type": "address"
        }
      ],
      "stateMutability": "nonpayable",
      "type": "constructor"
    },
    {
      "inputs": [],
      "name": "getBTCPrice",
      "outputs": [
        {
          "internalType": "uint256",
          "name": "",
          "type": "uint256"
        }
      ],
      "stateMutability": "view",
      "type": "function"
    },
    {
      "inputs": [],
      "name": "getXRPPrice",
      "outputs": [
        {
          "internalType": "uint256",
          "name": "",
          "type": "uint256"
        }
      ],
      "stateMutability": "view",
      "type": "function"
    },
    {
      "inputs": [],
      "name": "registry",
      "outputs": [
        {
          "internalType": "contract IFtsoRegistry",
          "name": "",
          "type": "address"
        }
      ],
      "stateMutability": "view",
      "type": "function"
    }
  ],
  "bytecode": "0x608060405234801561001057600080fd5b5060405161024e38038061024e83398101604081905261002f91610054565b600080546001600160a01b0319166001600160a01b0392909216919091179055610084565b60006020828403121561006657600080fd5b81516001600160a01b038116811461007d57600080fd5b9392505050565b6101bb806100936000396000f3fe608060405234801561001057600080fd5b50600436106100415760003560e01c80637b10399914610046578063dd22db8014610076578063f496ab611461008c575b600080fd5b600054610059906001600160a01b031681565b6040516001600160a01b0390911681526020015b60405180910390f35b61007e610094565b60405190815260200161006d565b61007e61011c565b600080546040516342a0f24360e01b815260206004820152600360248201526242544360e81b604482015282916001600160a01b0316906342a0f243906064015b6040805180830381865afa1580156100f1573d6000803e3d6000fd5b505050506040513d601f19601f820116820180604052508101906101159190610161565b5092915050565b600080546040516342a0f24360e01b815260206004820152600360248201526205852560ec1b604482015282916001600160a01b0316906342a0f243906064016100d5565b6000806040838503121561017457600080fd5b50508051602090910151909290915056fea264697066735822122053585659a4a4ba4a410315e8a711eebdc234ea7e89340768017e2ee95011447164736f6c63430008140033",
  "linkReferences": {},
  "deployedLinkReferences": {}
}