{
  "_format": "hh-sol-artifact-1",
  "contractName": "MockFAsset",
  "sourceName": "contracts/MockFAsset.sol",
  "abi": [
    {
      "inputs": [
        {
          "internalType": "string",
          "name": "name_",
          "type": "string"
        },
        {
          "internalType": "string",
          "name": "symbol_",
          "type": "string"
        }
      ],
      "stateMutability": "nonpayable",
      "type": "constructor"
    },
    {
      "inputs": [
        {
          "internalType": "address",
          "name": "spender",
          "type": "address"
        },
        {
          "internalType": "uint256",
          "name": "allowance",
          "type": "uint256"
        },
        {
          "internalType": "uint256",
          "name": "needed",
          "type": "uint256"
        }
      ],
      "name": "ERC20InsufficientAllowance",
      "type": "error"
    },
    {
      "inputs": [
        {
          "internalType": "address",
          "name": "sender",
          "type": "address"
        },
        {
          "internalType": "uint256",
          "name": "balance",
          "type": "uint256"
        },
        {
          "internalType": "uint256",
          "name": "needed",
          "type": "uint256"
        }
      ],
      "name": "ERC20InsufficientBalance",
      "type": "error"
    },
    {
      "inputs": [
        {
          "internalType": "address",
          "name": "approver",
          "type": "address"
        }
      ],
      "name": "ERC20InvalidApprover",
      "type": "error"
    },
    {
      "inputs": [
        {
          "internalType": "address",
          "name": "receiver",
          "type": "address"
        }
      ],
      "name": "ERC20InvalidReceiver",
      "type": "error"
    },
    {
      "inputs": [
        {
          "internalType": "address",
          "name": "sender",
          "type": "address"
        }
      ],
      "name": "ERC20InvalidSender",
      "type": "error"
    },
    {
      "inputs": [
        {
          "internalType": "address",
          "name": "spender",
          "type": "address"
        }
      ],
      "name": "ERC20InvalidSpender",
      "type": "error"
    },
    {
      "inputs": [
        {
          "internalType": "address",
          "name": "owner",
          "type": "address"
        }
      ],
      "name": "OwnableInvalidOwner",
      "type": "error"
    },
    {
      "inputs": [
        {
          "internalType": "address",
          "name": "account",
          "type": "address"
        }
      ],
      "name": "OwnableUnauthorizedAccount",
      "type": "error"
    },
    {
      "anonymous": false,
      "inputs": [
        {
          "indexed": true,
          "internalType": "address",
          "name": "owner",
          "type": "address"
        },
        {
          "indexed": true,
          "internalType": "address",
          "name": "spender",
          "type": "address"
        },
        {
          "indexed": false,
          "internalType": "uint256",
          "name": "value",
          "type": "uint256"
        }
      ],
      "name": "Approval",
      "type": "event"
    },
    {
      "anonymous": false,
      "inputs": [
        {
          "indexed": true,
          "internalType": "address",
          "name": "previousOwner",
          "type": "address"
        },
        {
          "indexed": true,
          "internalType": "address",
          "name": "newOwner",
          "type": "address"
        }
      ],
      "name": "OwnershipTransferred",
      "type": "event"
    },
    {
      "anonymous": false,
      "inputs": [
        {
          "indexed": true,
          "internalType": "address",
          "name": "from",
          "type": "address"
        },
        {
          "indexed": true,
          "internalType": "address",
          "name": "to",
          "type": "address"
        },
        {
          "indexed": false,
          "internalType": "uint256",
          "name": "value",
          "type": "uint256"
        }
      ],
      "name": "Transfer",
      "type": "event"
    },
    {
      "inputs": [
        {
          "internalType": "address",
          "name": "to",
          "type": "address"
        },
        {
          "internalType": "uint256",
          "name": "amount",
          "type": "uint256"
        }
      ],
      "name": "adminMint",
      "outputs": [],
      "stateMutability": "nonpayable",
      "type": "function"
    },
    {
      "inputs": [
        {
          "internalType": "address",
          "name": "owner",
          "type": "address"
        },
        {
          "internalType": "address",
          "name": "spender",
          "type": "address"
        }
      ],
      "name": "allowance",
      "outputs": [
        {
          "internalType": "uint256",
          "name": "",
          "type": "uint256"
        }
      ],
      "stateMutability": "view",
      "type": "function"
    },
    {
      "inputs": [
        {
          "internalType": "address",
          "name": "spender",
          "type": "address"
        },
        {
          "internalType": "uint256",
          "name": "value",
          "type": "uint256"
        }
      ],
      "name": "approve",
      "outputs": [
        {
          "internalType": "bool",
          "name": "",
          "type": "bool"
        }
      ],
      "stateMutability": "nonpayable",
      "type": "function"
    },
    {
      "inputs": [
        {
          "internalType": "address",
          "name": "account",
          "type": "address"
        }
      ],
      "name": "balanceOf",
      "outputs": [
        {
          "internalType": "uint256",
          "name": "",
          "type": "uint256"
        }
      ],
      "stateMutability": "view",
      "type": "function"
    },
    {
      "inputs": [
        {
          "internalType": "uint256",
          "name": "amount",
          "type": "uint256"
        }
      ],
      "name": "burn",
      "outputs": [],
      "stateMutability": "nonpayable",
      "type": "function"
    },
    {
      "inputs": [],
      "name": "decimals",
      "outputs": [
        {
          "internalType": "uint8",
          "name": "",
          "type": "uint8"
        }
      ],
      "stateMutability": "view",
      "type": "function"
    },
    {
      "inputs": [],
      "name": "faucet",
      "outputs": [],
      "stateMutability": "nonpayable",
      "type": "function"
    },
    {
      "inputs": [],
      "name": "faucetAmount",
      "outputs": [
        {
          "internalType": "uint256",
          "name": "",
          "type": "uint256"
        }
      ],
      "stateMutability": "view",
      "type": "function"
    },
    {
      "inputs": [],
      "name": "name",
      "outputs": [
        {
          "internalType": "string",
          "name": "",
          "type": "string"
        }
      ],
      "stateMutability": "view",
      "type": "function"
    },
    {
      "inputs": [],
      "name": "owner",
      "outputs": [
        {
          "internalType": "address",
          "name": "",
          "type": "address"
        }
      ],
      "stateMutability": "view",
      "type": "function"
    },
    {
      "inputs": [],
      "name": "renounceOwnership",
      "outputs": [],
      "stateMutability": "nonpayable",
      "type": "function"
    },
    {
      "inputs": [
        {
          "internalType": "uint256",
          "name": "amount",
          "type": "uint256"
        }
      ],
      "name": "setFaucetAmount",
      "outputs": [],
      "stateMutability": "nonpayable",
      "type": "function"
    },
    {
      "inputs": [],
      "name": "symbol",
      "outputs": [
        {
          "internalType": "string",
          "name": "",
          "type": "string"
        }
      ],
      "stateMutability": "view",
      "type": "function"
    },
    {
      "inputs": [],
      "name": "totalSupply",
      "outputs": [
        {
          "internalType": "uint256",
          "name": "",
          "type": "uint256"
        }
      ],
      "stateMutability": "view",
      "type": "function"
    },
    {
      "inputs": [
        {
          "internalType": "address",
          "name": "to",
          "type": "address"
        },
        {
          "internalType": "uint256",
          "name": "value",
          "type": "uint256"
        }
      ],
      "name": "transfer",
      "outputs": [
        {
          "internalType": "bool",
          "name": "",
          "type": "bool"
        }
      ],
      "stateMutability": "nonpayable",
      "type": "function"
    },
    {
      "inputs": [
        {
          "internalType": "address",
          "name": "from",
          "type": "address"
        },
        {
          "internalType": "address",
          "name": "to",
          "type": "address"
        },
        {
          "internalType": "uint256",
          "name": "value",
          "type": "uint256"
        }
      ],
      "name": "transferFrom",
      "outputs": [
        {
          "internalType": "bool",
          "name": "",
          "type": "bool"
        }
      ],
      "stateMutability": "nonpayable",
      "type": "function"
    },
    {
      "inputs": [
        {
          "internalType": "address",
          "name": "newOwner",
          "type": "address"
        }
      ],
      "name": "transferOwnership",
      "outputs": [],
      "stateMutability": "nonpayable",
      "type": "function"
    }
  ],
  "bytecode": "0x6080604052683635c9adc5dea000006006553480156200001e57600080fd5b5060405162000d3d38038062000d3d8339810160408190526200004191620001be565b3382826003620000528382620002b7565b506004620000618282620002b7565b5050506001600160a01b0381166200009357604051631e4fbdf760e01b81526000600482015260240160405180910390fd5b6200009e81620000a7565b50505062000383565b600580546001600160a01b038381166001600160a01b0319831681179093556040519116919082907f8be0079c531659141344cd1fd0a4f28419497f9722a3daafe3b4186f6b6457e090600090a35050565b634e487b7160e01b600052604160045260246000fd5b600082601f8301126200012157600080fd5b81516001600160401b03808211156200013e576200013e620000f9565b604051601f8301601f19908116603f01168101908282118183101715620001695762000169620000f9565b816040528381526020925086838588010111156200018657600080fd5b600091505b83821015620001aa57858201830151818301840152908201906200018b565b600093810190920192909252949350505050565b60008060408385031215620001d257600080fd5b82516001600160401b0380821115620001ea57600080fd5b620001f8868387016200010f565b935060208501519150808211156200020f57600080fd5b506200021e858286016200010f565b9150509250929050565b600181811c908216806200023d57607f821691505b6020821081036200025e57634e487b7160e01b600052602260045260246000fd5b50919050565b601f821115620002b257600081815260208120601f850160051c810160208610156200028d5750805b601f850160051c820191505b81811015620002ae5782815560010162000299565b5050505b505050565b81516001600160401b03811115620002d357620002d3620000f9565b620002eb81620002e4845462000228565b8462000264565b602080601f8311600181146200032357600084156200030a5750858301515b600019600386901b1c1916600185901b178555620002ae565b600085815260208120601f198616915b82811015620003545788860151825594840194600190910190840162000333565b5085821015620003735787850151600019600388901b60f8161c191681555b5050505050600190811b01905550565b6109aa80620003936000396000f3fe608060405234801561001057600080fd5b506004361061010b5760003560e01c806381d2fd9c116100a2578063a9059cbb11610071578063a9059cbb1461020a578063dd62ed3e1461021d578063de5f72fd14610256578063e58306f91461025e578063f2fde38b1461027157600080fd5b806381d2fd9c146101cb5780638da5cb5b146101de57806395d89b41146101f95780639c2814301461020157600080fd5b8063313ce567116100de578063313ce5671461017657806342966c681461018557806370a082311461019a578063715018a6146101c357600080fd5b806306fdde0314610110578063095ea7b31461012e57806318160ddd1461015157806323b872dd14610163575b600080fd5b610118610284565b60405161012591906107db565b60405180910390f35b61014161013c366004610845565b610316565b6040519015158152602001610125565b6002545b604051908152602001610125565b61014161017136600461086f565b610330565b60405160128152602001610125565b6101986101933660046108ab565b610354565b005b6101556101a83660046108c4565b6001600160a01b031660009081526020819052604090205490565b610198610361565b6101986101d93660046108ab565b610375565b6005546040516001600160a01b039091168152602001610125565b610118610382565b61015560065481565b610141610218366004610845565b610391565b61015561022b3660046108e6565b6001600160a01b03918216600090815260016020908152604080832093909416825291909152205490565b61019861039f565b61019861026c366004610845565b6103ab565b61019861027f3660046108c4565b6103c1565b60606003805461029390610919565b80601f01602080910402602001604051908101604052809291908181526020018280546102bf90610919565b801561030c5780601f106102e15761010080835404028352916020019161030c565b820191906000526020600020905b8154815290600101906020018083116102ef57829003601f168201915b5050505050905090565b600033610324818585610401565b60019150505b92915050565b60003361033e858285610413565b610349858585610492565b506001949350505050565b61035e33826104f1565b50565b610369610527565b6103736000610554565b565b61037d610527565b600655565b60606004805461029390610919565b600033610324818585610492565b610373336006546105a6565b6103b3610527565b6103bd82826105a6565b5050565b6103c9610527565b6001600160a01b0381166103f857604051631e4fbdf760e01b8152600060048201526024015b60405180910390fd5b61035e81610554565b61040e83838360016105dc565b505050565b6001600160a01b0383811660009081526001602090815260408083209386168352929052205460001981101561048c578181101561047d57604051637dc7a0d960e11b81526001600160a01b038416600482015260248101829052604481018390526064016103ef565b61048c848484840360006105dc565b50505050565b6001600160a01b0383166104bc57604051634b637e8f60e11b8152600060048201526024016103ef565b6001600160a01b0382166104e65760405163ec442f0560e01b8152600060048201526024016103ef565b61040e8383836106b1565b6001600160a01b03821661051b57604051634b637e8f60e11b8152600060048201526024016103ef565b6103bd826000836106b1565b6005546001600160a01b031633146103735760405163118cdaa760e01b81523360048201526024016103ef565b600580546001600160a01b038381166001600160a01b0319831681179093556040519116919082907f8be0079c531659141344cd1fd0a4f28419497f9722a3daafe3b4186f6b6457e090600090a35050565b6001600160a01b0382166105d05760405163ec442f0560e01b8152600060048201526024016103ef565b6103bd600083836106b1565b6001600160a01b0384166106065760405163e602df0560e01b8152600060048201526024016103ef565b6001600160a01b03831661063057604051634a1406b160e11b8152600060048201526024016103ef565b6001600160a01b038085166000908152600160209081526040808320938716835292905220829055801561048c57826001600160a01b0316846001600160a01b03167f8c5be1e5ebec7d5bd14f71427d1e84f3dd0314c0f7b2291e5b200ac8c7c3b925846040516106a391815260200190565b60405180910390a350505050565b6001600160a01b0383166106dc5780600260008282546106d19190610953565b9091555061074e9050565b6001600160a01b0383166000908152602081905260409020548181101561072f5760405163391434e360e21b81526001600160a01b038516600482015260248101829052604481018390526064016103ef565b6001600160a01b03841660009081526020819052604090209082900390555b6001600160a01b03821661076a57600280548290039055610789565b6001600160a01b03821660009081526020819052604090208054820190555b816001600160a01b0316836001600160a01b03167fddf252ad1be2c89b69c2b068fc378daa952ba7f163c4a11628f55a4df523b3ef836040516107ce91815260200190565b60405180910390a3505050565b600060208083528351808285015260005b81811015610808578581018301518582016040015282016107ec565b506000604082860101526040601f19601f8301168501019250505092915050565b80356001600160a01b038116811461084057600080fd5b919050565b6000806040838503121561085857600080fd5b61086183610829565b946020939093013593505050565b60008060006060848603121561088457600080fd5b61088d84610829565b925061089b60208501610829565b9150604084013590509250925092565b6000602082840312156108bd57600080fd5b5035919050565b6000602082840312156108d657600080fd5b6108df82610829565b9392505050565b600080604083850312156108f957600080fd5b61090283610829565b915061091060208401610829565b90509250929050565b600181811c9082168061092d57607f821691505b60208210810361094d57634e487b7160e01b600052602260045260246000fd5b50919050565b8082018082111561032a57634e487b7160e01b600052601160045260246000fdfea264697066735822122033f08dafd145dde9a5b3aeb83d5a0b67cd7acdfc4efa6515baf38d95e6e6547564736f6c63430008140033",
  "linkReferences": {},
  "deployedLinkReferences": {}
}