{
  "_format": "hh-sol-artifact-1",
  "contractName": "MockYieldVault",
  "sourceName": "contracts/MockYieldVault.sol",
  "abi": [
    {
      "inputs": [
        {
          "internalType": "address",
          "name": "_asset",
          "type": "address"
        },
        {
          "internalType": "string",
          "name": "_name",
          "type": "string"
        },
        {
          "internalType": "uint256",
          "name": "_apy",
          "type": "uint256"
        }
      ],
      "stateMutability": "nonpayable",
      "type": "constructor"
    },
    {
      "inputs": [
        {
          "internalType": "address",
          "name": "owner",
          "type": "address"
        }
      ],
      "name": "OwnableInvalidOwner",
      "type": "error"
    },
    {
      "inputs": [
        {
          "internalType": "address",
          "name": "account",
          "type": "address"
        }
      ],
      "name": "OwnableUnauthorizedAccount",
      "type": "error"
    },
    {
      "inputs": [
        {
          "internalType": "address",
          "name": "token",
          "type": "address"
        }
      ],
      "name": "SafeERC20FailedOperation",
      "type": "error"
    },
    {
      "anonymous": false,
      "inputs": [
        {
          "indexed": false,
          "internalType": "uint256",
          "name": "newAPY",
          "type": "uint256"
        }
      ],
      "name": "APYUpdated",
      "type": "event"
    },
    {
      "anonymous": false,
      "inputs": [
        {
          "indexed": true,
          "internalType": "address",
          "name": "user",
          "type": "address"
        },
        {
          "indexed": false,
          "internalType": "uint256",
          "name": "amount",
          "type": "uint256"
        }
      ],
      "name": "Deposited",
      "type": "event"
    },
    {
      "anonymous": false,
      "inputs": [
        {
          "indexed": true,
          "internalType": "address",
          "name": "previousOwner",
          "type": "address"
        },
        {
          "indexed": true,
          "internalType": "address",
          "name": "newOwner",
          "type": "address"
        }
      ],
      "name": "OwnershipTransferred",
      "type": "event"
    },
    {
      "anonymous": false,
      "inputs": [
        {
          "indexed": true,
          "internalType": "address",
          "name": "user",
          "type": "address"
        },
        {
          "indexed": false,
          "internalType": "uint256",
          "name": "amount",
          "type": "uint256"
        }
      ],
      "name": "Withdrawn",
      "type": "event"
    },
    {
      "inputs": [],
      "name": "YEAR",
      "outputs": [
        {
          "internalType": "uint256",
          "name": "",
          "type": "uint256"
        }
      ],
      "stateMutability": "view",
      "type": "function"
    },
    {
      "inputs": [],
      "name": "apy",
      "outputs": [
        {
          "internalType": "uint256",
          "name": "",
          "type": "uint256"
        }
      ],
      "stateMutability": "view",
      "type": "function"
    },
    {
      "inputs": [],
      "name": "asset",
      "outputs": [
        {
          "internalType": "contract IERC20",
          "name": "",
          "type": "address"
        }
      ],
      "stateMutability": "view",
      "type": "function"
    },
    {
      "inputs": [
        {
          "internalType": "uint256",
          "name": "amount",
          "type": "uint256"
        }
      ],
      "name": "deposit",
      "outputs": [],
      "stateMutability": "nonpayable",
      "type": "function"
    },
    {
      "inputs": [
        {
          "internalType": "address",
          "name": "",
          "type": "address"
        }
      ],
      "name": "depositTime",
      "outputs": [
        {
          "internalType": "uint256",
          "name": "",
          "type": "uint256"
        }
      ],
      "stateMutability": "view",
      "type": "function"
    },
    {
      "inputs": [
        {
          "internalType": "address",
          "name": "",
          "type": "address"
        }
      ],
      "name": "deposits",
      "outputs": [
        {
          "internalType": "uint256",
          "name": "",
          "type": "uint256"
        }
      ],
      "stateMutability": "view",
      "type": "function"
    },
    {
      "inputs": [
        {
          "internalType": "address",
          "name": "user",
          "type": "address"
        }
      ],
      "name": "earned",
      "outputs": [
        {
          "internalType": "uint256",
          "name": "",
          "type": "uint256"
        }
      ],
      "stateMutability": "view",
      "type": "function"
    },
    {
      "inputs": [],
      "name": "getAsset",
      "outputs": [
        {
          "internalType": "address",
          "name": "",
          "type": "address"
        }
      ],
      "stateMutability": "view",
      "type": "function"
    },
    {
      "inputs": [
        {
          "internalType": "address",
          "name": "user",
          "type": "address"
        }
      ],
      "name": "getBalance",
      "outputs": [
        {
          "internalType": "uint256",
          "name": "",
          "type": "uint256"
        }
      ],
      "stateMutability": "view",
      "type": "function"
    },
    {
      "inputs": [],
      "name": "getVaultInfo",
      "outputs": [
        {
          "internalType": "string",
          "name": "",
          "type": "string"
        },
        {
          "internalType": "uint256",
          "name": "",
          "type": "uint256"
        },
        {
          "internalType": "uint256",
          "name": "",
          "type": "uint256"
        },
        {
          "internalType": "address",
          "name": "",
          "type": "address"
        }
      ],
      "stateMutability": "view",
      "type": "function"
    },
    {
      "inputs": [],
      "name": "owner",
      "outputs": [
        {
          "internalType": "address",
          "name": "",
          "type": "address"
        }
      ],
      "stateMutability": "view",
      "type": "function"
    },
    {
      "inputs": [],
      "name": "renounceOwnership",
      "outputs": [],
      "stateMutability": "nonpayable",
      "type": "function"
    },
    {
      "inputs": [],
      "name": "totalDeposits",
      "outputs": [
        {
          "internalType": "uint256",
          "name": "",
          "type": "uint256"
        }
      ],
      "stateMutability": "view",
      "type": "function"
    },
    {
      "inputs": [
        {
          "internalType": "address",
          "name": "newOwner",
          "type": "address"
        }
      ],
      "name": "transferOwnership",
      "outputs": [],
      "stateMutability": "nonpayable",
      "type": "function"
    },
    {
      "inputs": [
        {
          "internalType": "uint256",
          "name": "newAPY",
          "type": "uint256"
        }
      ],
      "name": "updateAPY",
      "outputs": [],
      "stateMutability": "nonpayable",
      "type": "function"
    },
    {
      "inputs": [],
      "name": "vaultName",
      "outputs": [
        {
          "internalType": "string",
          "name": "",
          "type": "string"
        }
      ],
      "stateMutability": "view",
      "type": "function"
    },
    {
      "inputs": [
        {
          "internalType": "uint256",
          "name": "amount",
          "type": "uint256"
        }
      ],
      "name": "withdraw",
      "outputs": [],
      "stateMutability": "nonpayable",
      "type": "function"
    }
  ],
  "bytecode": "0x60a06040523480156200001157600080fd5b5060405162000ebb38038062000ebb83398101604081905262000034916200013e565b33806200005c57604051631e4fbdf760e01b8152600060048201526024015b60405180910390fd5b6200006781620000d8565b506001600160a01b038316620000b05760405162461bcd60e51b815260206004820152600d60248201526c1a5b9d985b1a5908185cdcd95d609a1b604482015260640162000053565b6001600160a01b0383166080526001620000cb8382620002cc565b5060025550620003989050565b600080546001600160a01b038381166001600160a01b0319831681178455604051919092169283917f8be0079c531659141344cd1fd0a4f28419497f9722a3daafe3b4186f6b6457e09190a35050565b634e487b7160e01b600052604160045260246000fd5b6000806000606084860312156200015457600080fd5b83516001600160a01b03811681146200016c57600080fd5b602085810151919450906001600160401b03808211156200018c57600080fd5b818701915087601f830112620001a157600080fd5b815181811115620001b657620001b662000128565b604051601f8201601f19908116603f01168101908382118183101715620001e157620001e162000128565b816040528281528a86848701011115620001fa57600080fd5b600093505b828410156200021e5784840186015181850187015292850192620001ff565b6000868483010152809750505050505050604084015190509250925092565b600181811c908216806200025257607f821691505b6020821081036200027357634e487b7160e01b600052602260045260246000fd5b50919050565b601f821115620002c757600081815260208120601f850160051c81016020861015620002a25750805b601f850160051c820191505b81811015620002c357828155600101620002ae565b5050505b505050565b81516001600160401b03811115620002e857620002e862000128565b6200030081620002f984546200023d565b8462000279565b602080601f8311600181146200033857600084156200031f5750858301515b600019600386901b1c1916600185901b178555620002c3565b600085815260208120601f198616915b82811015620003695788860151825594840194600190910190840162000348565b5085821015620003885787850151600019600388901b60f8161c191681555b5050505050600190811b01905550565b608051610aeb620003d060003960008181610164015281816101c90152818161049101528181610516015261061a0152610aeb6000f3fe608060405234801561001057600080fd5b506004361061010a5760003560e01c80637d882097116100a2578063b6b55f2511610071578063b6b55f2514610232578063f2fde38b14610245578063f8b2cb4f14610258578063fae728cd14610281578063fc7e286d1461029457600080fd5b80637d882097146101f55780637f98aa71146101fe57806383914540146102165780638da5cb5b1461022157600080fd5b80633bcfc4b8116100de5780633bcfc4b81461019e57806346c64873146101a75780635c222bad146101c7578063715018a6146101ed57600080fd5b80628cc2621461010f5780630ace9ca0146101355780632e1a7d4d1461014a57806338d52e0f1461015f575b600080fd5b61012261011d366004610926565b6102b4565b6040519081526020015b60405180910390f35b61013d61035d565b60405161012c919061099c565b61015d6101583660046109af565b6103eb565b005b6101867f000000000000000000000000000000000000000000000000000000000000000081565b6040516001600160a01b03909116815260200161012c565b61012260025481565b6101226101b5366004610926565b60056020526000908152604090205481565b7f0000000000000000000000000000000000000000000000000000000000000000610186565b61015d6104f1565b61012260035481565b610206610505565b60405161012c94939291906109c8565b6101226301e1338081565b6000546001600160a01b0316610186565b61015d6102403660046109af565b6105cf565b61015d610253366004610926565b6106da565b610122610266366004610926565b6001600160a01b031660009081526004602052604090205490565b61015d61028f3660046109af565b610718565b6101226102a2366004610926565b60046020526000908152604090205481565b6001600160a01b0381166000908152600460205260408120548015806102f057506001600160a01b038316600090815260056020526040902054155b156102fe5750600092915050565b6001600160a01b0383166000908152600560205260408120546103219042610a16565b90506103326301e133806064610a2f565b81600254846103419190610a2f565b61034b9190610a2f565b6103559190610a46565b949350505050565b6001805461036a90610a68565b80601f016020809104026020016040519081016040528092919081815260200182805461039690610a68565b80156103e35780601f106103b8576101008083540402835291602001916103e3565b820191906000526020600020905b8154815290600101906020018083116103c657829003601f168201915b505050505081565b336000908152600460205260409020548111156104465760405162461bcd60e51b8152602060048201526014602482015273696e73756666696369656e742062616c616e636560601b60448201526064015b60405180910390fd5b3360009081526004602052604081208054839290610465908490610a16565b92505081905550806003600082825461047e9190610a16565b909155506104b890506001600160a01b037f000000000000000000000000000000000000000000000000000000000000000016338361075b565b60405181815233907f7084f5476618d8e60b11ef0d7d3f06914655adb8793e28ff7f018d4c76d505d5906020015b60405180910390a250565b6104f9610795565b61050360006107c2565b565b6060600080600060016002546003547f000000000000000000000000000000000000000000000000000000000000000083805461054190610a68565b80601f016020809104026020016040519081016040528092919081815260200182805461056d90610a68565b80156105ba5780601f1061058f576101008083540402835291602001916105ba565b820191906000526020600020905b81548152906001019060200180831161059d57829003601f168201915b50505050509350935093509350935090919293565b6000811161060d5760405162461bcd60e51b815260206004820152600b60248201526a1e995c9bc8185b5bdd5b9d60aa1b604482015260640161043d565b6106426001600160a01b037f000000000000000000000000000000000000000000000000000000000000000016333084610812565b33600090815260056020526040812054900361066b573360009081526005602052604090204290555b336000908152600460205260408120805483929061068a908490610aa2565b9250508190555080600360008282546106a39190610aa2565b909155505060405181815233907f2da466a7b24304f47e87fa2e1e5a81b9831ce54fec19055ce277ca2f39ba42c4906020016104e6565b6106e2610795565b6001600160a01b03811661070c57604051631e4fbdf760e01b81526000600482015260240161043d565b610715816107c2565b50565b610720610795565b60028190556040518181527f5d96611557274413c64267972d202ca41009c399954bcb4cbab17d2a5156fbb09060200160405180910390a150565b610768838383600161084e565b61079057604051635274afe760e01b81526001600160a01b038416600482015260240161043d565b505050565b6000546001600160a01b031633146105035760405163118cdaa760e01b815233600482015260240161043d565b600080546001600160a01b038381166001600160a01b0319831681178455604051919092169283917f8be0079c531659141344cd1fd0a4f28419497f9722a3daafe3b4186f6b6457e09190a35050565b6108208484848460016108b4565b61084857604051635274afe760e01b81526001600160a01b038516600482015260240161043d565b50505050565b60405163a9059cbb60e01b60008181526001600160a01b038616600452602485905291602083604481808b5af1925060016000511483166108a857838315161561089b573d6000823e3d81fd5b6000873b113d1516831692505b60405250949350505050565b6040516323b872dd60e01b60008181526001600160a01b038781166004528616602452604485905291602083606481808c5af192506001600051148316610914578383151615610907573d6000823e3d81fd5b6000883b113d1516831692505b60405250600060605295945050505050565b60006020828403121561093857600080fd5b81356001600160a01b038116811461094f57600080fd5b9392505050565b6000815180845260005b8181101561097c57602081850181015186830182015201610960565b506000602082860101526020601f19601f83011685010191505092915050565b60208152600061094f6020830184610956565b6000602082840312156109c157600080fd5b5035919050565b6080815260006109db6080830187610956565b60208301959095525060408101929092526001600160a01b0316606090910152919050565b634e487b7160e01b600052601160045260246000fd5b81810381811115610a2957610a29610a00565b92915050565b8082028115828204841417610a2957610a29610a00565b600082610a6357634e487b7160e01b600052601260045260246000fd5b500490565b600181811c90821680610a7c57607f821691505b602082108103610a9c57634e487b7160e01b600052602260045260246000fd5b50919050565b80820180821115610a2957610a29610a0056fea264697066735822122027714199b386572377f372daf95010636f593392e6824a66b4fef68a73d1b85364736f6c63430008140033",
  "linkReferences": {},
  "deployedLinkReferences": {}
}